:1000000064EF25F069EF21F059EF00F000000000E7
:100010000000000000000000046ED8CF05F0E0CF23
:1000200006F00001E9CF0CF0EACF07F0E1CF08F0CD
:10003000E2CF09F0D9CF0AF0DACF0BF0F3CF12F00C
:10004000F4CF13F0FACF14F0F5CF15F0F6CF16F089
:10005000F7CF17F000C00EF001C00FF002C010F093
:1000600003C011F00EC000F00FC001F010C002F08C
:1000700011C003F00CC0E9FF07C0EAFF078E08C0FB
:10008000E1FF09C0E2FF0AC0D9FF0BC0DAFF12C0CE
:10009000F3FF13C0F4FF14C0FAFF15C0F5FF16C03C
:1000A000F6FF17C0F7FF045006C0E0FF05C0D8FFF9
:1000B00010001A6ED8CF1BF0E0CF1CF00001E9CF82
:1000C00022F0EACF1DF0E1CF1EF0E2CF1FF0D9CF32
:1000D00020F0DACF21F0F3CF28F0F4CF29F0FACFD7
:1000E0002AF0F5CF2BF0F6CF2CF0F7CF2DF000C093
:1000F00024F001C025F002C026F003C027F0F2AAC8
:1001000085EF00F0F2B4D5EF00F0F2A88BEF00F02D
:10011000F2B27FEF04F024C000F025C001F026C049
:1001200002F027C003F022C0E9FF1DC0EAFF1D8EC8
:100130001EC0E1FF1FC0E2FF20C0D9FF21C0DAFFCF
:1001400028C0F3FF29C0F4FF2AC0FAFF2BC0F5FF37
:100150002CC0F6FF2DC0F7FF1A501CC0E0FF1BC0DB
:10016000D8FF1000F76A740FF66E010EF72209002F
:10017000F5501200280C0106F76A880FF66E010E82
:10018000F7220900F55012004B4F5354555200000E
:10019000F76AA00FF66E010EF7220900F550120063
:1001A000594F59554E43414B0000D76A760ED66ED3
:1001B000010E3026D8B0312AD8B4322AD8B4332A26
:1001C000382AD8B4392A3A2AD8B43B2AF294F2947D
:1001D0008BEF00F00C20202020204B4F5354555221
:1001E00000000A2020203A3A2020257520203A3AA3
:1001F00000000C6D696E3A254C752C254C752C252C
:100200004C7500000C6D61783A254C752C254C75A9
:100210002C254C7500000C74696D65723A254C757F
:1002200000000A744D313A254C7500000C74696D5C
:1002300065723A254C7500000A744D323A254C75AA
:1002400000000C202E2E2E4A65746F6E20544C2E0A
:100250002E2E20000A3C3C3C202020203C3E20202A
:1002600020203E3E3E000C202E2E4F79756E2053EE
:1002700075726573692E2E000A3C3C3C20202020BC
:100280003C3E202020203E3E3E000C2E2E53454E6C
:1002900053204B414C494252452E2E000A3C3C3CD7
:1002A000202020203C3E202020203E3E3E000C20EE
:1002B0002E2E53656E736F7220546573742E2E004C
:1002C0000A3C3C3C202020203C3E202020203E3E7A
:1002D0003E000C202E4D6F746F72204B7572756C42
:1002E000756D2E000A3C3C3C202020203C3E202006
:1002F00020203E3E3E000C20202E2E2E526573659F
:10030000742E2E2E202000000A3C3C3C2020202071
:100310003C3E202020203E3E3E000C20202E2E2E53
:100320005345532E2E2E202000000A3C3C3C20201A
:1003300020203C3E202020203E3E3E000C53454ED7
:1003400053204F4B552053415949534900000A3C13
:100350003C3C202020203C3E202020203E3E3E00F1
:100360000C20202E2E2E43494B49532E2E2E20207A
:1003700000000A3C3C3C202020203C3E2020202045
:100380003E3E3E000C4B4F53545552204B4152546D
:100390002056312E30000A202020204C59532D3277
:1003A000303139000C536179693D25750A000A3CEA
:1003B0003C3C202020203C3E202020203E3E3E0091
:1003C0000C536179693D25750A000A3C3C3C2020AC
:1003D00020203C3E202020203E3E3E000C212120BB
:1003E0004B6179646564696C6469202121000A535A
:1003F0004159493A257500000C5345533D25750A6E
:1004000000000A3C3C3C202020203C3E20202020B4
:100410003E3E3E000C5345533D25750A00000A3C04
:100420003C3C202020203C3E202020203E3E3E0020
:100430000C2121204B6179646564696C6469202119
:1004400021000C6A746E20544C3D25750A000A3C4C
:100450003C3C202020203C3E202020203E3E3E00F0
:100460000C6A746E20544C3D25750A000A3C3C3CD5
:10047000202020203C3E202020203E3E3E000C211B
:1004800021204B6179646564696C646920212100D5
:100490000C4F79756E20537572653D257520646B20
:1004A00000000A3C3C3C202020203C3E2020202014
:1004B0003E3E3E000C4F79756E20537572653D25AA
:1004C0007520646B00000A3C3C3C202020203C3E10
:1004D000202020203E3E3E000C2121204B617964EB
:1004E0006564696C6469202121000C53454E5320DA
:1004F0006465676572206963696E2C000A746F70A9
:10050000206174696E2E2E2E00000C53454E533A16
:1005100020256C7520000A53454E533A2025312E74
:100520003266205600000C4D4158207665204D491A
:100530004E000A62656C69726C6579696E2E2E2EAA
:1005400000000C4D41582044454745523A000A539B
:10055000454E533A20256C7520000C4D494E2044E1
:10056000454745523A000A53454E533A20256C758B
:1005700020000C53656E736F722053696E79616C45
:100580003F3F3F000A3C3C3C202020203C3E2020B6
:1005900020203E3E3E000C53454E533A20256C75BC
:1005A00020000A53454E533A2025312E32662056FC
:1005B00000000C4556455420202020202020484192
:1005C000594952000A3C3C3C202020203C3E20203F
:1005D00020203E3E3E000C20212052455345542011
:1005E00054414D414D2021000A3C3C3C202020201C
:1005F0003C3E202020203E3E3E000C4D41583A25F6
:100600004C752C254C752C254C7500000C4D494E15
:100610003A254C752C254C752C254C7500000C5F2B
:100620004F315F202020205F4F325F0A00002020E2
:10063000254C75202020202020254C7520200000EE
:100640000C20204F59554E204249545449200A004D
:10065000254C75202D20254C75202D20533D254CF3
:10066000550042697474692E2E2E00004B617A6128
:100670006E616E204F79756E637520312050756103
:100680006E3D256C752000004B617A616E616E20B5
:100690004F79756E63752032205075616E3D256C03
:1006A000752000003C3C3C204265726162657265C9
:1006B000204B616C64696E697A2E2E2E0000537592
:1006C00072653A254C752073616E6979652020004A
:1006D000254C7520536E2E000C53454E53204F4B26
:1006E000554D41205341594900000A2575202D3EA2
:1006F00020743A2575206D5300000C4B4F53545510
:1007000052204B4152542056312E30000A253035AC
:100710004C7520206A746E3A2575544C0000426175
:10072000736C61202E2E2E0D0A000C4B4F53545526
:1007300052204B4152542056312E30000A2530357C
:100740004C7520206A746E3A2575544C00000C5389
:10075000454E533A20256C7520000A4F79756E3A44
:1007600020254C7500000C4F79756E204269747419
:1007700069000C4B4F53545552204B415254205654
:10078000312E30000A2530354C7520206A746E3ABF
:100790002575544C00000C202E2E2E415941524CF0
:1007A00041522E2E2E2000000A3C3C3C20202020CE
:1007B0003C3E202020203E3E3E0001018DB102D073
:1007C0008C9001D08C808DB302D08C9201D08C8221
:1007D0008DB502D08C9401D08C848DB702D08C96CC
:1007E00001D08C8600008C8A060E006E002EFED78B
:1007F00000008C9A000112008C98C70E006E002E2B
:10080000FED700D001018A5302E08C8801D08C9879
:1008100000008C9A8B398C6F0F0E8C178CC18DF168
:100820000001CBDF01018B510F0B8C6F8D6F00012D
:10083000C4DF1200010EEA6E860EE96EEF500EE084
:100840000C0E016E006A002EFED7012EFBD7F70EAC
:10085000006E002EFED700D0EF2EF2D7120001015D
:10086000872D01D003D0400E886F01D0886B010E18
:10087000865D882788518009896F8A6B8B6F00019C
:10088000BBDF1200010185510C0A000105E0060AD8
:100890000FE0020A15E01BD001018A6B010E8B6F7D
:1008A0000001AADF020E0101866F0001C3DF16D02E
:1008B000010E0101866F020E876F0001D0DF0ED09E
:1008C00001018A6B100E8B6F000196DF07D0010EBD
:1008D00001018A6F85C18BF100018EDF12000900D2
:1008E000F5520CE0F6CF83F1F7CF84F1F5CF85F127
:1008F000C9DF83C1F6FF84C1F7FFF1D71200220ED2
:10090000F66E090EF76EEBDF81B001D0492A0101C6
:100910004151495C02E34083496AF29200018BEF46
:1009200000F00C4A45544F4E000001016F6B8D9052
:100930006F6B6F5107081EE3070ED8806F55706FFD
:100940006CC100F07051016E04E0D8900032012EAD
:10095000FCD700A002D08D8201D08D928D94030E21
:10096000006E002EFED78D84030E006E002EFED783
:100970006F2BDFD76F6B6F5107081EE3070ED88010
:100980006F55706F6DC100F07051016E04E0D8902A
:100990000032012EFCD700A002D08D8201D08D92B2
:1009A0008D94030E006E002EFED78D84030E006E14
:1009B000002EFED76F2BDFD76F6B6F5107081EE33A
:1009C000070ED8806F55706F6EC100F07051016EC8
:1009D00004E0D8900032012EFCD700A002D08D8216
:1009E00001D08D928D94030E006E002EFED78D8463
:1009F000030E006E002EFED76F2BDFD78D80897817
:100A000000011200C50ED56ED76A630ED66EF28A4B
:100A10006CEF26F001016C6B6D6B6E6B000185DF76
:100A2000020E01015F6F196AF2BE198EF29EFA0E74
:100A3000866F0001FFDE19BEF28E01015F2FF3D732
:100A400000017CEF26F08C988C9A196AF2BE198E00
:100A5000F29E0F0E0101866F0001ECDE19BEF28ED0
:100A600001015F6B5F51020818E3196AF2BE198E2B
:100A7000F29E030E8D6F0001A0DE19BEF28E196A80
:100A8000F2BE198EF29E050E0101866F0001D2DEC4
:100A900019BEF28E01015F2BE5D7196AF2BE198EDD
:100AA000F29E020E8D6F000188DE19BEF28E0101EA
:100AB0005F6B5F5103081FE3036A5F510001B2ECF3
:100AC00000F00101606F196AF2BE198EF29E8A6B06
:100AD0008B6F000191DE19BEF28E196AF2BE198E7B
:100AE000F29E050E0101866F0001A4DE19BEF28E92
:100AF00001015F2BDED700017EEF26F0016A026A5A
:100B0000006A036A0101695102E1685118E0100EA0
:100B10006A6FD89066376737003603366951035CD1
:100B200002E16851005C07E36851005ED8A003064B
:100B30006951035ED880013602366A2FEAD7000178
:100B4000120001016651016A655D03E265C100F0B2
:100B50000CD0006A080E676F653700366651005C7E
:100B6000D8B0006E0136672FF7D700011200015090
:100B700063C165F1640E0101666F0001E2DF00C030
:100B800063F10150300E08E1010164A315D064B790
:100B900013D064B9200E04D0010164976499648174
:100BA0000126196AF2BE198EF29E01C085F100017C
:100BB00069DE19BEF28E010163C165F10A0E666F2E
:100BC0000001BFDF00C063F10150300E08E10101F8
:100BD00064B710D064A10ED064B9200E00010126C4
:100BE000196AF2BE198EF29E01C085F14BDE19BE64
:100BF000F28E0101300E6327196AF2BE198EF29E41
:100C000063C185F100013EDE19BEF28E12000900BB
:100C1000F6CF6AF1F7CF6BF1196AF2BE198EF29E28
:100C2000F5CF85F12FDE19BEF28E6AC1F6FF6BC1DA
:100C3000F7FF0101692F01D002D00001E8D70001C0
:100C40001200D8B204D0010EEA6E7E0EE96E006A80
:100C5000016A026A036A01017E6B7F6B806B816BA4
:100C60007D517C117B117A112CE0200E826FD8907F
:100C700076377737783779377E377F3780378137E0
:100C80007D51815D08E17C51805D05E17B517F5D97
:100C900002E17A517E5D0FE37A517E5F7B51D8A0ED
:100CA0007B3D7F5F7C51D8A07C3D805F7D51D8A08B
:100CB0007D3D815FD8800036013602360336822FB3
:100CC000D6D77EC1EFFF7FC1ECFF80C1ECFF81C1B1
:100CD000ECFF00011200E9500101676F3B0E6E6FDF
:100CE0009A0E6D6FCA0E6C6F6B6B0A0E696FD882AD
:100CF000010EEA6E630EE96E66C179F165C178F1A5
:100D000064C177F163C176F16EC17DF16DC17CF193
:100D10006CC17BF16BC17AF1000193DF015000528D
:100D200013E101016951010AD8A402D000010CD0DD
:100D300067510CE00F0B695D01E015E267BF13D04E
:100D400067BD04D0200E03D00101676B300E002672
:100D5000196AF2BE198EF29E00C085F1000192DD83
:100D600019BEF28E0101D8926EC179F16DC178F190
:100D70006CC177F16BC176F17D6B7C6B7B6B0A0E7E
:100D80007A6F00015EDF03C06EF102C06DF101C039
:100D90006CF100C06BF10101692FA9D700011200AD
:100DA000A4A8FED7010161C173FF0001E2EF06F0C4
:100DB0000900F5520CE0F6CF5FF1F7CF60F1F5CF07
:100DC00061F1EED75FC1F6FF60C1F7FFF1D718EF11
:100DD00028F047964794479246C06CF147C06DF1A2
:100DE00048C06EF1A2DD040E016EC250830B0110EB
:100DF000C26E420E006E002EFED70000C282C2B24A
:100E0000FED7C3CF87F0C4CF88F08851000809E22D
:100E1000FF0A03E18751320804E2000E016E0AD096
:100E200009D08851010806E303E18751320802E343
:100E3000010E016E120047964784479246C06CF13E
:100E400047C06DF148C06EF170DD040E016EC250F6
:100E5000830B0110C26E420E006E002EFED7000002
:100E6000C282C2B2FED7C3CF87F0C4CF88F0885108
:100E7000000809E2FF0A03E18751320804E2000E8C
:100E8000016E0AD009D08851010806E303E18751B9
:100E9000320802E3010E016E12000101665302E105
:100EA000675310E0196AF2BE198EF29E010E866F2A
:100EB0000001C0DC19BEF28E01016651D8B467078B
:100EC0006607ECD7000112000101466B456B5F918C
:100ED00000017FDF015209E14682469046C06CF175
:100EE00047C06DF148C06EF120DDA5DF015209E178
:100EF0004686469446C06CF147C06DF148C06EF11D
:100F000014DD468A469846C06CF147C06DF148C072
:100F10006EF10BDD90DF015209E04694469646C023
:100F20006CF147C06DF148C06EF1FFDC52DF015239
:100F300009E04690469246C06CF147C06DF148C04A
:100F40006EF1F3DC46DF015204E075DF015201E08F
:100F50009BD00101485303E14751640832E24886BF
:100F600046C06CF147C06DF148C06EF10001DDDC98
:100F7000488846C06CF147C06DF148C06EF1D5DCC1
:100F8000488A46C06CF147C06DF148C06EF1CDDCB7
:100F9000488046C06CF147C06DF148C06EF1C5DCB9
:100FA000488246C06CF147C06DF148C06EF1BDDCAF
:100FB000488446C06CF147C06DF148C06EF1B5DCA5
:100FC0000101485303E14751C80835E2486A486BBC
:100FD000476B489646C06CF147C06DF148C06EF152
:100FE0000001A3DC489846C06CF147C06DF148C0D1
:100FF0006EF19BDC489A46C06CF147C06DF148C069
:101000006EF193DC489046C06CF147C06DF148C06A
:101010006EF18BDC489246C06CF147C06DF148C060
:101020006EF183DC489A46C06CF147C06DF148C050
:101030006EF17BDC0101465303E14551C8080EE225
:101040005FB10CD05F814698469A46C06CF147C0AC
:101050006DF148C06EF1000168DC010146513908AC
:101060000AE2FF0A03E14551980805E2466B456B29
:1010700000010AD00101452BD8B4462B676B010E45
:10108000666F00010ADF46D70101486B476B466B6C
:10109000456B4690469246C06CF147C06DF148C022
:1010A0006EF1000142DC4694469646C06CF147C0A2
:1010B0006DF148C06EF139DC4698469A46C06CF135
:1010C00047C06DF148C06EF130DC1AEF28F09EA8E1
:1010D000FED701017DC1ADFF0001B2EF08F0050EA2
:1010E00001016A257C6F010E7D6FD8B07D2B010E4A
:1010F0007C27000E7D236B517C27000E7D236C51D5
:101100007C25016E000E7D21036E0150FF0A010F48
:10111000776F000E0354786F77C179F178C17AF157
:101120007E0E6D6F6E69060E6F6F6AC170F1010EF3
:10113000716F6BC172F16CC173F17AC174F179C1D5
:1011400075F1EF0E766F7B6B7B5109080EE3036A36
:101150007B516D0FE96E010E0320EA6EEFCF7DF13A
:101160000001B5D701017B2BEFD7196AF2BE198EAA
:10117000F29E1E0E866F00011AEC04F019BEF28E6C
:101180001200060E01016A6F6B6B65C16CF1000104
:10119000A6DF1200070E01016A6F6B6B60C16CF174
:1011A00000019DDFFFEF08F0160E01016A6F6B6B07
:1011B0006C6B000194DF120067C168F166C169F1D0
:1011C000120E01016A6F67C16BF166C16CF100011B
:1011D00086DF1200020E0101606F196AF2BE198EDD
:1011E000F29EFA0E866F00011AEC04F019BEF28E20
:1011F0000101602FF2D7050E606F0001CBD7196A8D
:10120000F2BE198EF29E640E0101866F00011AEC87
:1012100004F019BEF28EC8DF196AF2BE198EF29E72
:10122000640E0101866F00011AEC04F019BEF28E03
:101230005FC165F1A6DF196AF2BE198EF29E640ED7
:101240000101866F00011AEC04F019BEF28E196AD2
:10125000F2BE198EF29E640E0101866F00011AEC37
:1012600004F019BEF28E0101676B180E666F000163
:10127000A3DF196AF2BE198EF29E640E0101866F19
:1012800000011AEC04F019BEF28E4AEF28F061C199
:1012900062F160C163F1030E01016A6F61C16BF11C
:1012A00060C16CF100011BDFC0EF0DF00101656B47
:1012B000656B655105081CE3D8906535036A890F95
:1012C000E96E000E0320EA6E4DC0ECFFED524CC0FB
:1012D000EFFFD8906535036A970FE96E000E032083
:1012E000EA6E4BC0ECFFED524AC0EFFF652BE1D731
:1012F00000011200EACF6EF1E9CF6DF1010167390B
:10130000F009696F6927E20F6A6F320F6C6F6751DE
:101310000F0B6A276A276C27E90F6B6F6B276B2708
:1013200066390F0B6B276C276B376C376C1F6C376C
:1013300066510F0B6C276937070E686F0A0E6B0733
:101340006C27FDE36A076B27FDE369076A27FDE366
:1013500068076927FDE3010EEA6E680EE96E070E65
:101360006D156D9DE926000EEA22E9506C0803E137
:10137000EA2C01D06D8DEF50006E08E16DBD06D0F6
:101380006DB91CD06DB702D0200E03D06D876D995A
:10139000300E0026EACF67F1E9CF66F1196AF2BE96
:1013A000198EF29E00C085F1000142EC04F019BED6
:1013B000F28E67C1EAFF66C1E9FF0101EE506DAD33
:1013C000D4D70001120047864794479246C06CF17B
:1013D00047C06DF148C06EF195EC04F0040E016E4B
:1013E000C250830B0110C26E850E006E002EFED718
:1013F000C282C2B2FED7C3CF87F0C4CF88F0885173
:10140000000809E2FF0A03E18751320804E2000EF6
:10141000016E0AD009D08851010806E303E1875123
:10142000320802E3010E016E12004786478447929C
:1014300046C06CF147C06DF148C06EF195EC04F008
:10144000040E016EC250830B0110C26E850E006E39
:10145000002EFED7C282C2B2FED7C3CF87F0C4CF60
:1014600088F08851000809E2FF0A03E18751320839
:1014700004E2000E016E0AD009D08851010806E38B
:1014800003E18751320802E3010E016E12000101EF
:10149000696968696B6B6A6B676B67510F0820E35A
:1014A000479C479A479846C06CF147C06DF148C0C9
:1014B0006EF1000195EC04F0000E016EC250830B3A
:1014C0000110C26E850E006E002EFED7C282C2B21F
:1014D000FED7C35001016827C4506923672BDDD7AD
:1014E0006933683369336833693368336933683320
:1014F0000F0E691700018951975D01016C6F0001A2
:101500008A51985901016D6FD8906D31036E6C311D
:101510000001975D01016A6F0350000198590101B4
:101520006B6F66514C0818E16B51695D07E303E18D
:101530006A51685D03E3000E016E10D069516B5D66
:101540000BE303E16A51685D07E269C150F068C1CD
:101550004FF0010E016E02D0000E016E0001EFEFA0
:101560000CF00101696968696B6B6A6B676B6751A5
:101570000F0820E3478C479A479846C06CF147C054
:101580006DF148C06EF1000195EC04F0000E016EA3
:10159000C250830B0110C26E850E006E002EFED766
:1015A000C282C2B2FED7C35001016827C45069236A
:1015B000672BDDD769336833693368336933683340
:1015C000693368330F0E691700018B51995D010172
:1015D0006C6F00018C519A5901016D6FD8906D317B
:1015E000036E6C310001995D01016A6F03500001C7
:1015F0009A5901016B6F66514C0818E16B51695D96
:1016000007E303E16A51685D03E3000E016E10D049
:1016100069516B5D0BE303E16A51685D07E269C1E3
:1016200050F068C14FF0010E016E02D0000E016E45
:10163000000100EF0DF00101696968696B6B6A6B6D
:10164000676B67510F0820E3479C478A479846C05D
:101650006CF147C06DF148C06EF1000195EC04F0EB
:10166000000E016EC250830B0110C26E850E006E1B
:10167000002EFED7C282C2B2FED7C3500101682736
:10168000C4506923672BDDD7693368336933683306
:1016900069336833693368330F0E691700018D5160
:1016A0009B5D01016C6F00018E519C5901016D6FB2
:1016B000D8906D31036E6C3100019B5D01016A6F42
:1016C000035000019C5901016B6F66514C0818E1F1
:1016D0006B51695D07E303E16A51685D03E3000E46
:1016E000016E10D069516B5D0BE303E16A51685DD7
:1016F00007E269C150F068C14FF0010E016E02D0DF
:10170000000E016E000111EF0DF0010169696869B9
:101710006B6B6A6B676B67510F0820E3478C478AD6
:10172000479846C06CF147C06DF148C06EF10001AA
:1017300095EC04F0000E016EC250830B0110C26ED6
:10174000850E006E002EFED7C282C2B2FED7C350F5
:1017500001016827C4506923672BDDD769336833DB
:101760006933683369336833693368330F0E691737
:1017700000018F519D5D01016C6F000190519E59D8
:1017800001016D6FD8906D31036E6C3100019D5D6C
:1017900001016A6F035000019E5901016B6F665190
:1017A0004C0818E16B51695D07E303E16A51685D1C
:1017B00003E3000E016E10D069516B5D0BE303E192
:1017C0006A51685D07E269C150F068C14FF0010ECF
:1017D000016E02D0000E016E000122EF0DF001013A
:1017E000696968696B6B6A6B676B67510F0820E307
:1017F000479C479A478846C06CF147C06DF148C086
:101800006EF1000195EC04F0000E016EC250830BE6
:101810000110C26E850E006E002EFED7C282C2B2CB
:10182000FED7C35001016827C4506923672BDDD759
:1018300069336833693368336933683369336833CC
:101840000F0E6917000191519F5D01016C6F00013E
:101850009251A05901016D6FD8906D31036E6C31BA
:1018600000019F5D01016A6F03500001A059010151
:101870006B6F66514C0818E16B51695D07E303E13A
:101880006A51685D03E3000E016E10D069516B5D13
:101890000BE303E16A51685D07E269C150F068C17A
:1018A0004FF0010E016E02D0000E016E000133EF09
:1018B0000DF00101696968696B6B6A6B676B675151
:1018C0000F0820E3478C479A478846C06CF147C011
:1018D0006DF148C06EF1000195EC04F0000E016E50
:1018E000C250830B0110C26E850E006E002EFED713
:1018F000C282C2B2FED7C35001016827C450692317
:10190000672BDDD7693368336933683369336833EC
:10191000693368330F0E691700019351A15D01010E
:101920006C6F00019451A25901016D6FD8906D3117
:10193000036E6C310001A15D01016A6F035000016B
:10194000A25901016B6F66514C0818E16B51695D3A
:1019500007E303E16A51685D03E3000E016E10D0F6
:1019600069516B5D0BE303E16A51685D07E269C190
:1019700050F068C14FF0010E016E02D0000E016EF2
:10198000000144EF0DF0488C488E478046C06CF152
:1019900047C06DF148C06EF195EC04F0486A13DD64
:1019A000015205E142DD015202E181A515D04690C8
:1019B000469246C06CF147C06DF148C06EF195EC9F
:1019C00004F04694469646C06CF147C06DF148C09D
:1019D0006EF195EC04F0818565C166F158D5015230
:1019E0000CE0488646C06CF147C06DF148C06EF10E
:1019F00095EC04F00B0E016E85D065C166F1B1D592
:101A000001520CE0488846C06CF147C06DF148C0F7
:101A10006EF195EC04F00C0E016E74D065C166F1A8
:101A20000AD601520CE0488A46C06CF147C06DF1FD
:101A300048C06EF195EC04F00D0E016E63D065C1E7
:101A400066F163D601520CE0488046C06CF147C095
:101A50006DF148C06EF195EC04F0150E016E52D098
:101A600065C166F1BCD601520CE0488246C06CF1FB
:101A700047C06DF148C06EF195EC04F0160E016E92
:101A800041D065C166F115D701520CE0488446C0CB
:101A90006CF147C06DF148C06EF195EC04F0170E83
:101AA000016E30D090DC015205E1BFDC015202E151
:101AB00081A515D04690469246C06CF147C06DF1A5
:101AC00048C06EF195EC04F04694469646C06CF121
:101AD00047C06DF148C06EF195EC04F0818573DC70
:101AE000015205E1A2DC015202E181A503D0000E02
:101AF000016E08D081A504D0000E016E03D002D083
:101B0000FF0E016E120001015F6B00017E6B7D6BA9
:101B1000806B7F6B010140930001D4EC08F0196ADF
:101B2000F2BE198EF29E640E0101866F00011AEC5E
:101B300004F019BEF28E1D0E0101656F0001C1ECAB
:101B400008F0196AF2BE198EF29E640E0101866FCA
:101B500000011AEC04F019BEF28E196AF2BE198E59
:101B6000F29E640E0101866F00011AEC04F019BEAA
:101B7000F28E0101616B090E606F000147EF09F001
:101B8000040E0101606F196AF2BE198EF29EFA0E00
:101B9000866F00011AEC04F019BEF28E0101602F6D
:101BA000F2D7488C488E478046C06CF147C06DF133
:101BB00048C06EF1000195EC04F0489646C06CF107
:101BC00047C06DF148C06EF195EC04F0489846C0EE
:101BD0006CF147C06DF148C06EF195EC04F0489A85
:101BE00046C06CF147C06DF148C06EF195EC04F051
:101BF000489046C06CF147C06DF148C06EF195EC5D
:101C000004F0489246C06CF147C06DF148C06EF1D7
:101C100095EC04F0489A46C06CF147C06DF148C09D
:101C20006EF195EC04F00101676B070E666F000121
:101C3000DCEC08F0F2CF60F1F29E050EA96EA69CD6
:101C4000A69EA680A850010160BFF28EFF083DE06D
:101C5000F2CF61F1F29E060EA96EA69CA69EA6800A
:101C6000A85061BFF28EFF0830E0F2CF60F1F29E23
:101C7000060EA96EA69CA69EA680A85060BFF28EF6
:101C8000616FF2CF62F1F29E050EA96EA69CA69E30
:101C9000A680A85062BFF28E636F61C172F063C10B
:101CA00071F072C067F171C066F1696B030E686F05
:101CB00000017EEC05F002C076F001C075F0D8900E
:101CC0007535736F7635746F0101F2CF60F1F29E56
:101CD000070EA96EA69CA69EA680A85060BFF28E95
:101CE000FF083DE0F2CF61F1F29E080EA96EA69CBE
:101CF000A69EA680A85061BFF28EFF0830E0F2CF0A
:101D000060F1F29E080EA96EA69CA69EA680A85021
:101D100060BFF28E616FF2CF62F1F29E070EA96E84
:101D2000A69CA69EA680A85062BFF28E636F61C17A
:101D300078F063C177F078C067F177C066F1696BBE
:101D4000030E686F00017EEC05F002C07CF001C05C
:101D50007BF0D8907B35796F7C357A6F0101F2CFBB
:101D600060F1F29E0B0EA96EA69CA69EA680A850BE
:101D700060BFF28EFF080EE0F2CF60F1F29E0B0E14
:101D8000A96EA69CA69EA680A85060BFF28E0001F8
:101D9000866F03D0020E0001866F56EC09F0FA0E32
:101DA000F66E050EF76E050E0101696F000107EC76
:101DB00006F0100EE96E98C067F197C066F17AECF4
:101DC00009F0196AF2BE198EF29E2C0E0101856F80
:101DD000000142EC04F019BEF28E100EE96E9AC0BA
:101DE00067F199C066F17AEC09F0196AF2BE198EB2
:101DF000F29E2C0E0101856F000142EC04F019BE29
:101E0000F28E100EE96E9CC067F19BC066F17AEC11
:101E100009F0196AF2BE198EF29E0A0E0101856F51
:101E2000000142EC04F019BEF28E100EE96E9EC065
:101E300067F19DC066F17AEC09F0196AF2BE198E5D
:101E4000F29E2C0E0101856F000142EC04F019BED8
:101E5000F28E100EE96EA0C067F19FC066F17AECB9
:101E600009F0196AF2BE198EF29E2C0E0101856FDF
:101E7000000142EC04F019BEF28E100EE96EA2C011
:101E800067F1A1C066F17AEC09F0196AF2BE198E09
:101E9000F29E3A0E0101856F000142EC04F019BE7A
:101EA000F28E100EE96EB2C067F1B1C066F17AEC45
:101EB00009F0060E0101606F196AF2BE198EF29EDA
:101EC000FA0E866F00011AEC04F019BEF28E0101C1
:101ED000602FF2D70C0EF66E060EF76E050E696FC8
:101EE000000107EC06F0100EE96E8AC067F189C0A8
:101EF00066F17AEC09F0196AF2BE198EF29E2C0E88
:101F00000101856F000142EC04F019BEF28E100E43
:101F1000E96E8CC067F18BC066F17AEC09F0196A42
:101F2000F2BE198EF29E2C0E0101856F000142EC6B
:101F300004F019BEF28E100EE96E8EC067F18DC0EE
:101F400066F17AEC09F0196AF2BE198EF29E0A0E59
:101F50000101856F000142EC04F019BEF28E100EF3
:101F6000E96E90C067F18FC066F17AEC09F0196AEA
:101F7000F2BE198EF29E2C0E0101856F000142EC1B
:101F800004F019BEF28E100EE96E92C067F191C096
:101F900066F17AEC09F0196AF2BE198EF29E2C0EE7
:101FA0000101856F000142EC04F019BEF28E100EA3
:101FB000E96E94C067F193C066F17AEC09F0060E01
:101FC0000101606F196AF2BE198EF29EFA0E866FD9
:101FD00000011AEC04F019BEF28E0101602FF2D755
:101FE0001D0E656F0001C1EC08F0196AF2BE198E72
:101FF000F29E640E0101866F00011AEC04F019BE16
:10200000F28ED4EC08F0196AF2BE198EF29E640EBC
:102010000101866F00011AEC04F019BEF28E010175
:10202000676B0A0E666F0001DCEC08F001015F6B64
:102030005F51090809E34C0E656F0001A4DC01C083
:102040004EF001015F2BF4D74688469A46C06CF1EA
:1020500047C06DF148C06EF1000195EC04F0020E2E
:102060000101606F196AF2BE198EF29EFA0E866F38
:1020700000011AEC04F019BEF28E0101602FF2D7B4
:102080004698469A46C06CF147C06DF148C06EF163
:10209000000195EC04F001014081376A366A356A27
:1020A000346A000108EF29F0D4EC08F00101676BF5
:1020B000140E666F00014DEC07F0010165510B082D
:1020C00003E06551150807E1676B010E666F0001BB
:1020D000DCEC08F0010165510C0809E065510D08C0
:1020E00006E06551160803E06551170807E1676BC4
:1020F000020E666F0001DCEC08F001010001120025
:102100005FC160F1010160510B0810E1488646C0D3
:102110006CF147C06DF148C06EF1000195EC04F020
:1021200071C001F072C002F05ED0010160510C0874
:1021300010E1488846C06CF147C06DF148C06EF1AF
:10214000000195EC04F073C001F074C002F04BD0B4
:10215000010160510D0810E1488A46C06CF147C08A
:102160006DF148C06EF1000195EC04F075C001F00E
:1021700076C002F038D001016051150810E14880A6
:1021800046C06CF147C06DF148C06EF1000195EC9E
:1021900004F077C001F078C002F025D00101605151
:1021A000160810E1488246C06CF147C06DF148C086
:1021B0006EF1000195EC04F079C001F07AC002F0F4
:1021C00012D00101605117080FE1488446C06CF13C
:1021D00047C06DF148C06EF1000195EC04F07BC082
:1021E00001F07CC002F00101000112005FC162F148
:1021F000010162510B0806E062510C0803E06251D4
:102200000D0852E1000181BB0ED04680469246C0C7
:102210006CF147C06DF148C06EF195EC04F0818B14
:102220008199396A386A01016151395C19E303E126
:102230003850605D15E2000181BB02D0010110D071
:102240004690469246C06CF147C06DF148C06EF1B1
:1022500095EC04F08189819B010E016E83D0010110
:10226000160EF66E020EF76E070E696F000107EC90
:1022700006F0100EE96E39C067F138C066F17AECED
:1022800009F0220EF66E020EF76E050E0101696F5F
:10229000000107EC06F0100EE96E61C167F160C144
:1022A00066F17AEC09F001016251150806E062510D
:1022B000160803E06251170852E1000181BF0ED0F9
:1022C0004684469646C06CF147C06DF148C06EF139
:1022D00095EC04F0818F819D3B6A3A6A010161515E
:1022E0003B5C19E303E13A50605D15E2000181BFF8
:1022F00002D0010110D04694469646C06CF147C00A
:102300006DF148C06EF195EC04F0818D819F010E56
:10231000016E28D001012C0EF66E020EF76E070E2C
:10232000696F000107EC06F0100EE96E3BC067F123
:102330003AC066F17AEC09F0380EF66E020EF76ECE
:10234000050E0101696F000107EC06F0100EE96E41
:1023500061C167F160C166F17AEC09F00101000E1C
:10236000016E00011200010163516503F3CF00F01B
:10237000F4CF01F0026A036A6603F3500126F450B9
:102380000222000E032264516503F3500126F4502B
:102390000222000E032264516603F3500226F45019
:1023A0000322000198EF2AF00101485303E147514D
:1023B000640838E2488646C06CF147C06DF148C0F9
:1023C0006EF1000195EC04F0488846C06CF147C0FE
:1023D0006DF148C06EF195EC04F0488A46C06CF18E
:1023E00047C06DF148C06EF195EC04F0488046C0DE
:1023F0006CF147C06DF148C06EF195EC04F0488275
:1024000046C06CF147C06DF148C06EF195EC04F028
:10241000488446C06CF147C06DF148C06EF195EC40
:1024200004F00101485303E14751C8083BE2486A00
:10243000486B476B489646C06CF147C06DF148C089
:102440006EF1000195EC04F0489846C06CF147C06D
:102450006DF148C06EF195EC04F0489A46C06CF1FD
:1024600047C06DF148C06EF195EC04F0489046C04D
:102470006CF147C06DF148C06EF195EC04F04892E4
:1024800046C06CF147C06DF148C06EF195EC04F0A8
:10249000489A46C06CF147C06DF148C06EF195ECAA
:1024A00004F001014551B8080FE146510B080CE159
:1024B000468A469846C06CF147C06DF148C06EF13F
:1024C000000195EC04F001014551AC080FE14651C3
:1024D0000D080CE14698469A46C06CF147C06DF174
:1024E00048C06EF1000195EC04F001014651390835
:1024F00007E2FF0A03E14551980802E2466B456B8B
:10250000452BD8B4462B472BD8B4482B676B010E0C
:10251000666F00014DEC07F06FEF2CF0016603D001
:10252000026602D007D0022A00C0EEFF012EFCD7BF
:10253000022EFAD74AEF13F001015F6B5F6B5F5118
:1025400006080FE3036A5F51570FE96E000E032080
:10255000EA6EEF50565C03E1000E016E04D05F2B73
:10256000EED7010E016E00014BEF13F00101676B16
:10257000686B010E696FDA6AD96A6C6F5F0E6B6FF8
:10258000010EEA6E630EE96E6CC1E2FF6BC1E1FF02
:1025900069C16AF1D890E550EE02F3506723F45018
:1025A00068236A2FF7D767C1DEFF68C167F1686BE0
:1025B000D8B0682B6B2BD8B46C2B692B69510508EC
:1025C000DFE10001F7EF12F045C062F144C061F1B4
:1025D00043C060F142C05FF1410E0101666FC60E5B
:1025E000656F4E0E646F6D0E636F0001BFD7390EBD
:1025F00001010024426E300E0120436E000E0220C5
:10260000446E000E0320456E44C000F045C001F04A
:10261000026A036A45C061F144C060F145C067F1D8
:1026200044C066F17F0E696F686900017EEC05F0B9
:1026300000C001F003C002F04EEF13F0D4EC08F03C
:10264000196AF2BE198EF29E640E0101866F0001B6
:102650001AEC04F019BEF28E010E0101656F000143
:10266000C1EC08F0196AF2BE198EF29E640E0101E7
:10267000866F00011AEC04F019BEF28E5E50060857
:1026800009E25E6AEA6A570EE96E006A026A070E9C
:10269000016E44D751D7015214E196D702C060F1C0
:1026A00001C05FF102C067F101C066F10101696B11
:1026B000070E686F00017EEC05F00050140F566E97
:1026C000E9D7036A5E50570FE96E000E0320EA6EE9
:1026D00056C0EFFF5E2A5650190802E2190E566ED8
:1026E000D40EF66E010EF76E196AF2BE198EF29EC6
:1026F0006FEC04F019BEF28EE20EF66E010EF76E6C
:10270000080E0101696F000107EC06F056C063F185
:102710001B0E0101646F0001B7EC05F0EC0EF66EC4
:10272000010EF76E040E0101696F000107EC06F05F
:10273000140E0101656F0001C1EC08F0196AF2BEC8
:10274000198EF29E640E0101866F00011AEC04F0EE
:1027500019BEF28E0101676B56C066F10001DCEC18
:1027600008F09EEF2DF00101606BF2CF61F1F29E57
:10277000040EA96EA69CA69EA680A85061BFF28EEC
:10278000FF080CE0F2CF61F1F29E040EA96EA69C48
:10279000A69EA680A85061BFF28E606F420EF66EB4
:1027A000040EF76E080E696F000107EC06F060C1B9
:1027B00063F11B0E0101646F0001B7EC05F0196AAB
:1027C000F2BE198EF29E0A0E0101856F000142ECE5
:1027D00004F019BEF28E4E0EF66E040EF76E196AF4
:1027E000F2BE198EF29E6FEC04F019BEF28E040E4A
:1027F0000101616F196AF2BE198EF29EFA0E866FA0
:1028000000011AEC04F019BEF28E0101612FF2D71B
:10281000196AF2BE198EF29E010E866F876F000153
:102820002FEC04F019BEF28E600EF66E040EF76EF9
:10283000080E0101696F000107EC06F060C163F149
:102840001B0E0101646F0001B7EC05F0196AF2BEBE
:10285000198EF29E0A0E0101856F000142EC04F010
:1028600019BEF28E6C0EF66E040EF76E196AF2BE89
:10287000198EF29E6FEC04F019BEF28E80BA13D05E
:10288000196AF2BE198EF29E640E0101866F000174
:102890001AEC04F019BEF28E01016007605302E1E8
:1028A000010E606F000180B414D0196AF2BE198E57
:1028B000F29E640E0101866F00011AEC04F019BE4D
:1028C000F28E0101602B60510A0802E20A0E606F6D
:1028D0000001196AF2BE198EF29E640E0101866F24
:1028E00000011AEC04F019BEF28E80A602D001019C
:1028F0008FD7F250006EF29E040EA96E60C1A8FF41
:10290000A69CA69EA6840F01550EA76EAA0EA76EC2
:10291000A682A6B2FED7A6940050F2127E0EF66EE4
:10292000040EF76E196AF2BE198EF29E00016FEC6A
:1029300004F019BEF28E040E0101616F196AF2BE35
:10294000198EF29EFA0E866F00011AEC04F019BE81
:10295000F28E0101612FF2D700019DEF20F0020EEF
:102960000101606FF2CF61F1F29E0B0EA96EA69C81
:10297000A69EA680A85061BFF28EFF080CE0F2CFA1
:1029800061F1F29E0B0EA96EA69CA69EA680A85091
:1029900061BFF28E606F900EF66E040EF76E0B0E36
:1029A000696F000107EC06F060C163F11B0E0101C5
:1029B000646F0001B7EC05F09D0EF66E040EF76E25
:1029C000030E0101696F000107EC06F0A20EF66E1E
:1029D000040EF76E196AF2BE198EF29E6FEC04F0C7
:1029E00019BEF28E040E0101616F196AF2BE198ED2
:1029F000F29EFA0E866F00011AEC04F019BEF28EF8
:102A00000101612FF2D7196AF2BE198EF29E010EF2
:102A1000866F876F00012FEC04F019BEF28EB40EA2
:102A2000F66E040EF76E0B0E0101696F000107ECE4
:102A300006F060C163F11B0E0101646F0001B7EC89
:102A400005F0C10EF66E040EF76E030E0101696FFC
:102A5000000107EC06F0C60EF66E040EF76E196A5A
:102A6000F2BE198EF29E6FEC04F019BEF28E80BA9F
:102A700014D0196AF2BE198EF29E640E0101866F9F
:102A800000011AEC04F019BEF28E010160076051DA
:102A9000010802E3020E606F000180B414D0196ACD
:102AA000F2BE198EF29E640E0101866F00011AECCF
:102AB00004F019BEF28E0101602B6051190802E288
:102AC000190E606F0001196AF2BE198EF29E640E33
:102AD0000101866F00011AEC04F019BEF28E80A687
:102AE00002D0010190D7F250006EF29E0B0EA96E3B
:102AF00060C1A8FFA69CA69EA6840F01550EA76ED6
:102B0000AA0EA76EA682A6B2FED7A6940050F21215
:102B1000D80EF66E040EF76E196AF2BE198EF29E8A
:102B200000016FEC04F019BEF28E60C186F0040E55
:102B30000101616F196AF2BE198EF29EFA0E866F5C
:102B400000011AEC04F019BEF28E0101612FF2D7D8
:102B50000001CEEF20F00101656B65510F08D8A090
:102B6000ACD0479C479A479846C06CF147C06DF17E
:102B700048C06EF1000195EC04F0000E016EC250E9
:102B8000830B0110C26E850E006E002EFED7C2822E
:102B9000C2B2FED7C350A327C450A423478C479A80
:102BA000479846C06CF147C06DF148C06EF195EC96
:102BB00004F0000E016EC250830B0110C26E850E30
:102BC000006E002EFED7C282C2B2FED7C350A52728
:102BD000C450A623479C478A479846C06CF147C01B
:102BE0006DF148C06EF195EC04F0000E016EC2501C
:102BF000830B0110C26E850E006E002EFED7C282BE
:102C0000C2B2FED7C350A727C450A823478C478A17
:102C1000479846C06CF147C06DF148C06EF195EC25
:102C200004F0000E016EC250830B0110C26E850EBF
:102C3000006E002EFED7C282C2B2FED7C350A927B3
:102C4000C450AA23479C479A478846C06CF147C0A6
:102C50006DF148C06EF195EC04F0000E016EC250AB
:102C6000830B0110C26E850E006E002EFED7C2824D
:102C7000C2B2FED7C350AB27C450AC23478C479A8F
:102C8000478846C06CF147C06DF148C06EF195ECC5
:102C900004F0000E016EC250830B0110C26E850E4F
:102CA000006E002EFED7C282C2B2FED7C350AD273F
:102CB000C450AE230101652B50D70001A433A333C8
:102CC000A433A333A433A333A433A3330F0EA41725
:102CD000A633A533A633A533A633A533A633A53330
:102CE000A617A833A733A833A733A833A733A8332D
:102CF000A733A817AA33A933AA33A933AA33A93310
:102D0000AA33A933AA17AC33AB33AC33AB33AC33F0
:102D1000AB33AC33AB33AC17AE33AD33AE33AD33D3
:102D2000AE33AD33AE33AD33AE17B26BB16B010121
:102D3000656B6551050861E3D8906535036AA30F9B
:102D4000E96E000E0320EA6EECCF67F1ED52EFCF93
:102D500066F1675101081FE3D8906535036A970F44
:102D6000016E000E032203C067F1D8906535036A37
:102D7000A30FE96E000E0320EA6EECCF03F0ED52D4
:102D8000EFCF68F167C1EAFF01C0E9FF03C0ECFFC4
:102D9000ED5268C1EFFFD8906535036AA30FE96E65
:102DA000000E0320EA6EECCF67F1ED52EFCF66F133
:102DB000675310E16651F9080DE3D8906535036A51
:102DC000970FE96E000E0320EA6E010EEC6EED52D5
:102DD000990EEF6ED8906535036A970FE96E000E75
:102DE0000320EA6EECCF03F0ED52EF500001B12763
:102DF0000350B2230101652B9CD7B2C067F1B1C06B
:102E000066F1696B060E686F00017EEC05F002C08A
:102E1000B2F001C0B1F0040EF66E020EF76E050EB0
:102E20000101696F000107EC06F0100EE96E98C011
:102E300067F197C066F17AEC09F0196AF2BE198E53
:102E4000F29E2C0E0101856F000142EC04F019BEC8
:102E5000F28E100EE96E9AC067F199C066F17AECB5
:102E600009F0196AF2BE198EF29E2C0E0101856FCF
:102E7000000142EC04F019BEF28E100EE96E9CC007
:102E800067F19BC066F17AEC09F0196AF2BE198EFF
:102E9000F29E0A0E0101856F000142EC04F019BE9A
:102EA000F28E100EE96E9EC067F19DC066F17AEC5D
:102EB00009F0196AF2BE198EF29E2C0E0101856F7F
:102EC000000142EC04F019BEF28E100EE96EA0C0B3
:102ED00067F19FC066F17AEC09F0196AF2BE198EAB
:102EE000F29E2C0E0101856F000142EC04F019BE28
:102EF000F28E100EE96EA2C067F1A1C066F17AEC05
:102F000009F0196AF2BE198EF29E3A0E0101856F20
:102F1000000142EC04F019BEF28E100EE96EB2C050
:102F200067F1B1C066F17AEC09F0080E0101666F35
:102F3000196AF2BE198EF29EFA0E866F00011AEC23
:102F400004F019BEF28E0101662FF2D700011200C3
:102F50008E0E006E66C101F065C102F0036A015277
:102F600009E102C001F0026A080E005E015202E1AE
:102F7000006A08D0D89001BE04D00236013600069F
:102F8000F9D7019E120001017651D8B471D0006EBC
:102F90007A51D8B46DD0002604E3810E002668E291
:102FA00004D07F0E005E64E363E077C17EF17B5165
:102FB0007E1B778F7B8F79517D03F4CF80F1785121
:102FC0007C03F4CF03F0F3CF7FF17D03F350802730
:102FD000F4507F23000E032279517C03F3508027A5
:102FE000F4507F23000E026A0322022277517D03F0
:102FF000F3507F27F4500322000E022277517C0306
:10300000F3500326F4500222000E016A0122795186
:103010007B03F3507F27F4500322000E022201228B
:1030200078517B03F3500326F4500222000E012254
:1030300077517B03F3500226F4500122002A01BE8F
:1030400005D07F370336023601360006000E7FAF0B
:103050000AD0032A02220122015005E1025003E1B5
:10306000035001E1002A7EBF018E7EAF019E04D095
:10307000006A016A026A036A0001120001017651C6
:10308000B608766F036A77C17AF1778FD890773375
:10309000783379330332023201320032762FF6D799
:1030A0007AAF0BD0001E011E021E031E002AD8B4E8
:1030B000012AD8B4022AD8B4032A00018BEF18F0F1
:1030C000E95001016E6F6D51706F1BE06CC179F1B9
:1030D0006BC178F16AC177F169C176F17D6B7C6B68
:1030E000200E7B6F820E7A6F00014DDF03C06CF102
:1030F00002C06BF101C06AF100C069F10101702FDB
:10310000E5D76CC179F16BC178F16AC177F169C11A
:1031100076F10001B3D703C06CF102C06BF101C0BE
:103120006AF100C069F101016CAF0DD06E076E8BC2
:10313000691F6A1F6B1F6C1F692BD8B46A2BD8B428
:103140006B2BD8B46C2B3B0E756F9A0E746FCA0E36
:10315000736F726B0A0E706F6D51D8B46E2BD8827C
:10316000010EEA6E690EE96E6CC179F16BC178F1FE
:103170006AC177F169C176F175C17DF174C17CF1E5
:1031800073C17BF172C17AF1000121EC06F00150AC
:10319000005213E101016D29705DD8A402D0000135
:1031A0000CD06E510DE00F0B705D01E05CE26EBF64
:1031B0005AD06EBD05D0200E49D0200E01016E17E9
:1031C0006EAB15D06E9B6D51D8A46E0700506E6F1C
:1031D000196AF2BE198EF29E2D0E856F000142EC27
:1031E00004F019BEF28E01016E51006E6E6B6D51CE
:1031F000705D13E100506E6F196AF2BE198EF29E77
:103200002E0E856F000142EC04F019BEF28E010112
:103210006E51006E200E6E17000E300E6EAB16D083
:103220006E9B6D51D8A46E0700506E6F196AF2BE86
:10323000198EF29E2D0E856F000142EC04F019BE2E
:10324000F28E01016E51006E6E6B300E0026196A0F
:10325000F2BE198EF29E00C085F1000142EC04F02E
:1032600019BEF28E0101D89275C179F174C178F15D
:1032700073C177F172C176F17D6B7C6B7B6B0A0E4B
:103280007A6F000121EC06F003C075F102C074F101
:1032900001C073F100C072F10101702F60D700010D
:1032A00012000101616B636B626B646B6C6B6D6B25
:1032B0006E6B000195EC04F0D4EC08F0140E0101E3
:1032C000656F0001C1EC08F0196AF2BE198EF29E1A
:1032D000640E0101866F00011AEC04F019BEF28E33
:1032E0004688469A46C06CF147C06DF148C06EF101
:1032F00095EC04F0020E0101656F196AF2BE198E99
:10330000F29EFA0E866F00011AEC04F019BEF28EDE
:103310000101652FF2D74698469A46C06CF147C026
:103320006DF148C06EF1000195EC04F056EC09F027
:1033300012DCEA0EF66E040EF76E196AF2BE198EF2
:10334000F29E6FEC04F019BEF28EFC0EF66E040EC7
:10335000F76E196AF2BE198EF29E6FEC04F019BE78
:10336000F28E4C0E0101656F0001C3EC0CF001C040
:103370004EF04E3C01D073D04EC065F154EC10F0CD
:103380000A0EF66E050EF76E070E0101696F000159
:1033900007EC06F0100EE96E50C067F14FC066F101
:1033A0007AEC09F0196AF2BE198EF29E200E010124
:1033B000856F000142EC04F019BEF28E50C066F138
:1033C0004FC065F1C5DD03C079F102C078F101C0DD
:1033D00077F100C076F10A0E01017D6F280E7C6F37
:1033E000200E7B6F770E7A6F0001CDDD03C068F190
:1033F00002C067F101C066F100C065F1160EF66EFD
:10340000050EF76E070E0101696F000107EC06F06B
:10341000890EE96E68C16CF167C16BF166C16AF132
:1034200065C169F1020E01016D6F000149DE196A83
:10343000F2BE198EF29E200E0101856F000142EC52
:1034400004F019BEF28E196AF2BE198EF29E560E63
:103450000101856F000142EC04F019BEF28E80B6C6
:1034600013D0020E0101656F196AF2BE198EF29E29
:10347000FA0E866F00011AEC04F019BEF28E0101FB
:10348000652FF2D70FD00001196AF2BE198EF29E95
:10349000190E0101866F00011AEC04F019BEF28EBC
:1034A00060D70101B2C063F1B1C062F1260EF66EC1
:1034B000050EF76E196AF2BE198EF29E00016FECCE
:1034C00004F019BEF28E320EF66E050EF76E196A12
:1034D000F2BE198EF29E6FEC04F019BEF28E040E4D
:1034E0000101656F196AF2BE198EF29EFA0E866F9F
:1034F00000011AEC04F019BEF28E0101652FF2D71B
:1035000080BA10D0196AF2BE198EF29E640E866FD0
:1035100000011AEC04F019BEF28E01016251D8B418
:103520006307620780B40FD0196AF2BE198EF29E4B
:10353000640E866F00011AEC04F019BEF28E0101D0
:10354000622BD8B4632B80B611D0020E656F196A56
:10355000F2BE198EF29EFA0E866F00011AEC04F08C
:1035600019BEF28E0101652FF2D739D0420EF66EE8
:10357000050EF76E196AF2BE198EF29E00016FEC0D
:1035800004F019BEF28E4E0EF66E050EF76E070EA3
:103590000101696F000107EC06F0100EE96E63C1CE
:1035A00067F162C166F17AEC09F0196AF2BE198E10
:1035B000F29E200E0101856F000142EC04F019BE5D
:1035C000F28E196AF2BE198EF29E640E0101866FA8
:1035D00000011AEC04F019BEF28E010191D763C10B
:1035E00065F1F250006EF29E250EA96E65C1A8FF2E
:1035F000A69CA69EA6840F01550EA76EAA0EA76EC6
:10360000A682A6B2FED7A6940050F21262C165F15E
:10361000F2CF00F0F29E260EA96E62C1A8FFA69C12
:10362000A69EA684550EA76EAA0EA76EA682A6B267
:10363000FED7A6940050F2120101636BCD0E626FAB
:1036400080BA10D0196AF2BE198EF29E640E866F8F
:1036500000011AEC04F019BEF28E01016251D8B4D7
:103660006307620780B40FD0196AF2BE198EF29E0A
:10367000640E866F00011AEC04F019BEF28E01018F
:10368000622BD8B4632B80B611D0020E656F196A15
:10369000F2BE198EF29EFA0E866F00011AEC04F04B
:1036A00019BEF28E0101652FF2D739D05A0EF66E8F
:1036B000050EF76E196AF2BE198EF29E00016FECCC
:1036C00004F019BEF28E660EF66E050EF76E070E4A
:1036D0000101696F000107EC06F0100EE96E63C18D
:1036E00067F162C166F17AEC09F0196AF2BE198ECF
:1036F000F29E200E0101856F000142EC04F019BE1C
:10370000F28E196AF2BE198EF29E640E0101866F66
:1037100000011AEC04F019BEF28E010191D763C1C9
:1037200065F1F250006EF29E270EA96E65C1A8FFEA
:10373000A69CA69EA6840F01550EA76EAA0EA76E84
:10374000A682A6B2FED7A6940050F21262C165F11D
:10375000F2CF00F0F29E280EA96E62C1A8FFA69CCF
:10376000A69EA684550EA76EAA0EA76EA682A6B226
:10377000FED7A6940050F21251C065F1F2CF00F0CE
:10378000F29EA96A51C0A8FFA69CA69EA684550ECB
:10379000A76EAA0EA76EA682A6B2FED7A694005068
:1037A000F21252C065F1F2CF00F0F29E010EA96E46
:1037B00052C0A8FFA69CA69EA684550EA76EAA0E70
:1037C000A76EA682A6B2FED7A6940050F21253C0EE
:1037D00065F1F2CF00F0F29E020EA96E53C0A8FF71
:1037E000A69CA69EA684550EA76EAA0EA76EA682BC
:1037F000A6B2FED7A6940050F21254C065F1F2CFE3
:1038000000F0F29E030EA96E54C0A8FFA69CA69ECF
:10381000A684550EA76EAA0EA76EA682A6B2FED7E4
:10382000A6940050F212040E0101656F196AF2BEEF
:10383000198EF29EFA0E866F00011AEC04F019BE82
:10384000F28E0101652FF2D7000103EF21F0720E15
:10385000F66E050EF76E196AF2BE198EF29E6FECC7
:1038600004F019BEF28E840EF66E050EF76E196A1C
:10387000F2BE198EF29E6FEC04F019BEF28E0101B9
:103880006C6B6D6B6E6B000195EC04F0D4EC08F082
:10389000140E0101656F0001C1EC08F0196AF2BE57
:1038A000198EF29E640E0101866F00011AEC04F07D
:1038B00019BEF28E01016C6B6D6B6E6B000195ECA5
:1038C00004F056EC09F04688469A46C06CF147C0B1
:1038D0006DF148C06EF195EC04F0020E0101616FCC
:1038E000196AF2BE198EF29EFA0E866F00011AEC6A
:1038F00004F019BEF28E0101612FF2D74698469A64
:1039000046C06CF147C06DF148C06EF1000195EC06
:1039100004F056EC09F0ABEC15F04C0E0101656FAC
:103920000001C3EC0CF001C04EF04E3C01D076D04B
:103930004EC065F154EC10F0960EF66E050EF76E63
:10394000070E0101696F000107EC06F0100EE96E29
:1039500050C067F14FC066F17AEC09F0196AF2BE07
:10396000198EF29E200E0101856F000142EC04F0D9
:1039700019BEF28E50C066F14FC065F1A8EC17F089
:1039800003C079F102C078F101C077F100C076F18F
:103990000A0E01017D6F280E7C6F200E7B6F770E63
:1039A0007A6F0001C3EC17F003C064F102C063F149
:1039B00001C062F100C061F1A20EF66E050EF76E55
:1039C000070E0101696F000107EC06F0890EE96E30
:1039D00064C16CF163C16BF162C16AF161C169F1EB
:1039E000020E01016D6F000160EC18F0196AF2BE61
:1039F000198EF29E200E0101856F000142EC04F049
:103A000019BEF28E196AF2BE198EF29E560E01018F
:103A1000856F000142EC04F019BEF28E80B613D01F
:103A2000020E0101616F196AF2BE198EF29EFA0E42
:103A3000866F00011AEC04F019BEF28E0101612FAD
:103A4000F2D70FD00001196AF2BE198EF29E190E3C
:103A50000101866F00011AEC04F019BEF28E5DD7E9
:103A600001010001D4EC08F0196AF2BE198EF29E31
:103A7000640E0101866F00011AEC04F019BEF28E8B
:103A80000101676B0A0E666F0001DCEC08F0080E9E
:103A90000101616F196AF2BE198EF29EFA0E866FED
:103AA00000011AEC04F019BEF28E0101612FF2D769
:103AB000000138EF21F00101606BB20EF66E050EC9
:103AC000F76E196AF2BE198EF29E00016FEC04F0D7
:103AD00019BEF28EC40EF66E050EF76E196AF2BEAE
:103AE000198EF29E6FEC04F019BEF28E196AF2BEC6
:103AF000198EF29E640E0101866F00011AEC04F02B
:103B000019BEF28E80A6FED780BA41D0196AF2BEE5
:103B1000198EF29EC80E0101866F00011AEC04F0A6
:103B200019BEF28E0101606B6051280817E3F25054
:103B3000006EF29E60C1A9FFA868A69CA69EA684FE
:103B40000F01550EA76EAA0EA76EA682A6B2FED7CB
:103B5000A6940050F2120101602BE6D7D60EF66E45
:103B6000050EF76E196AF2BE198EF29E00016FEC17
:103B700004F019BEF28EE80EF66E050EF76E196AA5
:103B8000F2BE198EF29E6FEC04F019BEF28E80A682
:103B900002D080B40DD0196AF2BE198EF29E640E66
:103BA0000101866F00011AEC04F019BEF28E01D0FB
:103BB000ABD7040E0101616F196AF2BE198EF29E35
:103BC000FA0E866F00011AEC04F019BEF28E0101A4
:103BD000612FF2D700019AEF21F00101606BF2CF63
:103BE00061F1F29E0C0EA96EA69CA69EA680A8501E
:103BF00061BFF28EFF080CE0F2CF61F1F29E0C0E75
:103C0000A96EA69CA69EA680A85061BFF28E606F8A
:103C1000F80EF66E030EF76E050E696F000107ECE5
:103C200006F060C163F11B0E0101646F0001B7EC87
:103C300005F0196AF2BE198EF29E0A0E0101856F17
:103C4000000142EC04F019BEF28E020EF66E040E74
:103C5000F76E196AF2BE198EF29E6FEC04F019BE6F
:103C6000F28E040E0101616F196AF2BE198EF29E86
:103C7000FA0E866F00011AEC04F019BEF28E0101F3
:103C8000612FF2D7196AF2BE198EF29E010E866F6D
:103C9000876F00012FEC04F019BEF28E140EF66E41
:103CA000040EF76E050E0101696F000107EC06F0C6
:103CB00060C163F11B0E0101646F0001B7EC05F0F8
:103CC000196AF2BE198EF29E0A0E0101856F00017B
:103CD00042EC04F019BEF28E1E0EF66E040EF76E64
:103CE000196AF2BE198EF29E6FEC04F019BEF28EC4
:103CF00080BA13D0196AF2BE198EF29E640E0101C9
:103D0000866F00011AEC04F019BEF28E0101600703
:103D1000605302E1010E606F000180B414D0196A93
:103D2000F2BE198EF29E640E0101866F00011AEC3C
:103D300004F019BEF28E0101602B60511D0802E2F1
:103D4000010E606F0001196AF2BE198EF29E640EB8
:103D50000101866F00011AEC04F019BEF28E80A6F4
:103D600002D001018FD7F250006EF29E0C0EA96EA8
:103D700060C1A8FFA69CA69EA6840F01550EA76E43
:103D8000AA0EA76EA682A6B2FED7A6940050F21283
:103D900060C165F10001C1EC08F0300EF66E040E52
:103DA000F76E196AF2BE198EF29E6FEC04F019BE1E
:103DB000F28E040E0101616F196AF2BE198EF29E35
:103DC000FA0E866F00011AEC04F019BEF28E0101A2
:103DD000612FF2D70001CAEF21F00101606B280EBC
:103DE000616FF2CF62F1F29E290EA96EA69CA69E8B
:103DF000A680A85062BFF28EFF081AE0F2CF62F1EF
:103E0000F29E290EA96EA69CA69EA680A85062BF0F
:103E1000F28E636F030E676FE80E666F696B63C1A6
:103E200068F100017EEC05F001C060F104D00101F1
:103E3000190E606F0001A40EF66E030EF76E060EEB
:103E40000101696F000107EC06F060C163F11B0E10
:103E50000101646F0001B7EC05F0196AF2BE198E1A
:103E6000F29E0A0E0101856F000142EC04F019BEBA
:103E7000F28EAE0EF66E030EF76E196AF2BE198E52
:103E8000F29E6FEC04F019BEF28E040E0101626F17
:103E9000196AF2BE198EF29EFA0E866F00011AECB4
:103EA00004F019BEF28E0101622FF2D7196AF2BE38
:103EB000198EF29E010E866F876F00012FEC04F0C1
:103EC00019BEF28EC00EF66E030EF76E060E0101DD
:103ED000696F000107EC06F060C163F11B0E010180
:103EE000646F0001B7EC05F0196AF2BE198EF29EFC
:103EF0000A0E0101856F000142EC04F019BEF28E3A
:103F0000CA0EF66E030EF76E196AF2BE198EF29E95
:103F10006FEC04F019BEF28E80BA14D0196AF2BEAA
:103F2000198EF29E640E0101866F00011AEC04F0F6
:103F300019BEF28E010160076051030802E3040E0E
:103F4000606F000180B414D0196AF2BE198EF29E1F
:103F5000640E0101866F00011AEC04F019BEF28EA6
:103F60000101602B6051630802E2640E606F000182
:103F7000196AF2BE198EF29E640E0101866F00016D
:103F80001AEC04F019BEF28E80A602D001018ED781
:103F9000030E0101676FE80E666F696B60C168F11F
:103FA00000017EEC05F001C061F1F250006EF29E5E
:103FB000290EA96E61C1A8FFA69CA69EA6840F012A
:103FC000550EA76EAA0EA76EA682A6B2FED7A6941D
:103FD0000050F21261C155F0DC0EF66E030EF76E62
:103FE000196AF2BE198EF29E00016FEC04F019BE40
:103FF000F28E030E0101676FE80E666F696B55C0A4
:1040000068F100017EEC05F001C062F1EE0EF66E83
:10401000030EF76E060E0101696F000107EC06F052
:1040200062C163F11B0E0101646F0001B7EC05F082
:10403000040E0101626F196AF2BE198EF29EFA0E29
:10404000866F00011AEC04F019BEF28E0101622F96
:10405000F2D70001FBEF21F001015F6B6C6B6D6B20
:104060006E6B000195EC04F0196AF2BE198EF29E97
:10407000640E0101866F00011AEC04F019BEF28E85
:10408000F29A80BA16D0196AF2BE198EF29E320EDA
:104090000101866F00011AEC04F019BEF28E0101D5
:1040A0005F075FBF03D05F51000802E3090E5F6F37
:1040B000000180B416D0196AF2BE198EF29E320E3B
:1040C0000101866F00011AEC04F019BEF28E0101A5
:1040D0005F2B5FBF05D05F51090802E2010E5F6FE1
:1040E000000101015F2D2CD0420EF66E020EF76E1C
:1040F000196AF2BE198EF29E00016FEC04F019BE2F
:10410000F28E540EF66E020EF76E196AF2BE198E1A
:10411000F29E6FEC04F019BEF28E80B612D0196ACE
:10412000F2BE198EF29E640E0101866F00011AEC38
:1041300004F019BEF28EB3EF13F0020E01015F6FAF
:10414000000101015F5102082CE1660EF66E020EBD
:10415000F76E196AF2BE198EF29E00016FEC04F040
:1041600019BEF28E780EF66E020EF76E196AF2BE66
:10417000198EF29E6FEC04F019BEF28E80B612D04A
:10418000196AF2BE198EF29E640E0101866F00015B
:104190001AEC04F019BEF28EAFEF14F0030E010119
:1041A0005F6F000101015F51030830E18A0EF66E76
:1041B000020EF76E196AF2BE198EF29E00016FECC4
:1041C00004F019BEF28E9C0EF66E020EF76E196A9E
:1041D000F2BE198EF29E6FEC04F019BEF28E80B61C
:1041E00016D0196AF2BE198EF29E640E0101866F16
:1041F00000011AEC04F019BEF28E4C0E0101606F42
:10420000000151EF19F0040E01015F6F000101017F
:104210005F51040830E1AE0EF66E020EF76E196AB9
:10422000F2BE198EF29E00016FEC04F019BEF28E00
:10423000C00EF66E020EF76E196AF2BE198EF29E6D
:104240006FEC04F019BEF28E80B616D0196AF2BE79
:10425000198EF29E640E0101866F00011AEC04F0C3
:1042600019BEF28E4C0E0101606F000127EF1CF0A9
:10427000050E01015F6F000101015F5105082CE18E
:10428000D20EF66E020EF76E196AF2BE198EF29E0B
:1042900000016FEC04F019BEF28EE40EF66E020E11
:1042A000F76E196AF2BE198EF29E6FEC04F019BE19
:1042B000F28E80B612D0196AF2BE198EF29E640E8A
:1042C0000101866F00011AEC04F019BEF28E02EFB4
:1042D00000F0060E01015F6F000101015F51060849
:1042E0002CE1F60EF66E020EF76E196AF2BE198E0A
:1042F000F29E00016FEC04F019BEF28E080EF66E0D
:10430000030EF76E196AF2BE198EF29E6FEC04F07E
:1043100019BEF28E80B612D0196AF2BE198EF29EC4
:10432000640E0101866F00011AEC04F019BEF28ED2
:104330005BEF1DF0070E01015F6F000101015F518E
:1043400007082CE11A0EF66E030EF76E196AF2BE1C
:10435000198EF29E00016FEC04F019BEF28E2A0E47
:10436000F66E030EF76E196AF2BE198EF29E6FECAE
:1043700004F019BEF28E80B612D0196AF2BE198E00
:10438000F29E640E0101866F00011AEC04F019BE62
:10439000F28E23D4080E01015F6F6FD0000101017E
:1043A0005F5108082CE13C0EF66E030EF76E196A99
:1043B000F2BE198EF29E00016FEC04F019BEF28E6F
:1043C0004E0EF66E030EF76E196AF2BE198EF29E4D
:1043D0006FEC04F019BEF28E80B612D0196AF2BEEC
:1043E000198EF29E640E0101866F00011AEC04F032
:1043F00019BEF28EF2D4090E01015F6F3ED00001AA
:1044000001015F5109082AE1600EF66E030EF76E96
:10441000196AF2BE198EF29E00016FEC04F019BE0B
:10442000F28E720EF66E030EF76E196AF2BE198ED8
:10443000F29E6FEC04F019BEF28E80B610D0196AAD
:10444000F2BE198EF29E640E0101866F00011AEC15
:1044500004F019BEF28EF28A01010FD00001196A30
:10446000F2BE198EF29EC80E0101866F00011AEC91
:1044700004F019BEF28E05D60101840EF66E030E0D
:10448000F76E196AF2BE198EF29E00016FEC04F00D
:1044900019BEF28E960EF66E030EF76E196AF2BE14
:1044A000198EF29E6FEC04F019BEF28E040E01011B
:1044B000606F196AF2BE198EF29EFA0E866F0001C5
:1044C0001AEC04F019BEF28E0101602FF2D7FF0042
:1044D0000001DAEF2DF0010160531DE1488C46C068
:1044E0006CF147C06DF148C06EF1000195EC04F02D
:1044F000489E46C06CF147C06DF148C06EF195EC26
:1045000004F0479046C06CF147C06DF148C06EF1B1
:1045100095EC04F00101602D1DD0488E46C06CF171
:1045200047C06DF148C06EF1000195EC04F0479072
:1045300046C06CF147C06DF148C06EF195EC04F0D7
:10454000489C46C06CF147C06DF148C06EF195ECD7
:1045500004F00101605102081DE1478046C06CF182
:1045600047C06DF148C06EF1000195EC04F0489E23
:1045700046C06CF147C06DF148C06EF195EC04F097
:10458000489C46C06CF147C06DF148C06EF195EC97
:1045900004F001016051030816E1489C489E4790D1
:1045A00046C06CF147C06DF148C06EF1000195EC5A
:1045B00004F0488046C06CF147C06DF148C06EF110
:1045C00095EC04F001016051040801E1488246C005
:1045D0006CF147C06DF148C06EF1000195EC04F03C
:1045E00001016051050801E1488446C06CF147C0F3
:1045F0006DF148C06EF1000195EC04F001016051CD
:10460000060801E1488646C06CF147C06DF148C01C
:104610006EF1000195EC04F001016051070801E121
:10462000488846C06CF147C06DF148C06EF100018A
:1046300095EC04F001016051080801E1488A46C088
:104640006CF147C06DF148C06EF1000195EC04F0CB
:1046500001016051090853E1489646C06CF147C01A
:104660006DF148C06EF1000195EC04F0489846C029
:104670006CF147C06DF148C06EF195EC04F0489ABA
:1046800046C06CF147C06DF148C06EF195EC04F086
:10469000489046C06CF147C06DF148C06EF195EC92
:1046A00004F0489246C06CF147C06DF148C06EF10D
:1046B00095EC04F0489446C06CF147C06DF148C0D9
:1046C0006EF195EC04F0489C46C06CF147C06DF16A
:1046D00048C06EF195EC04F0489E46C06CF147C0AE
:1046E0006DF148C06EF195EC04F0479046C06CF156
:1046F00047C06DF148C06EF195EC04F00101000176
:1047000028EF2EF0EA6ADC0EE96E000EBCEC00F039
:104710000A000900F550EE6E0009FBE101015F6B34
:104720005F51040829E36C6B6D6B6E6B000195ECB7
:1047300004F001016C696D696E69000195EC04F08B
:10474000196AF2BE198EF29E640E0101866F000195
:104750001AEC04F019BEF28E81B001D0492A010191
:104760004151495C02E34083496A40A303D0000EF3
:10477000016E02D05F2BD4D7000130EF2EF0010183
:10478000605314E1488046C06CF147C06DF148C0E9
:104790006EF1000195EC04F0488E46C06CF147C004
:1047A0006DF148C06EF195EC04F00101602D01D06F
:1047B000489046C06CF147C06DF148C06EF10001F1
:1047C00095EC04F001016051020801E1488246C005
:1047D0006CF147C06DF148C06EF1000195EC04F03A
:1047E00001016051030814E1489246C06CF147C0D2
:1047F0006DF148C06EF1000195EC04F0488C46C0A4
:104800006CF147C06DF148C06EF195EC04F0010108
:104810006051040801E1488446C06CF147C06DF165
:1048200048C06EF1000195EC04F0010160510508EB
:1048300001E1489446C06CF147C06DF148C06EF18B
:10484000000195EC04F001016051060801E1488681
:1048500046C06CF147C06DF148C06EF1000195ECA7
:1048600004F001016051070814E1489646C06CF15C
:1048700047C06DF148C06EF1000195EC04F047802F
:1048800046C06CF147C06DF148C06EF195EC04F084
:1048900001016051080801E1488846C06CF147C039
:1048A0006DF148C06EF1000195EC04F0010160511A
:1048B000090801E1489846C06CF147C06DF148C055
:1048C0006EF1000195EC04F0010160510A0801E16C
:1048D000488A46C06CF147C06DF148C06EF10001D6
:1048E00095EC04F0010160510B0816E1489A46C0AE
:1048F0006CF147C06DF148C06EF1000195EC04F019
:10490000489C489E479046C06CF147C06DF148C036
:104910006EF195EC04F0010100017FEF2EF0F2CF73
:1049200062F1F29E040EA96EA69CA69EA680A850D7
:10493000010162BFF28E5F6F5F3D02D0010E5F6FBB
:10494000606B6051050841E36C6B6D6B6E6B000131
:1049500095EC04F0196AF2BE198EF29E960E0101D2
:10496000866F00011AEC04F019BEF28E01016C6929
:104970006D696E69000195EC04F0196AF2BE198E3A
:10498000F29E640E0101866F00011AEC04F019BE5C
:10499000F28E196AF2BE198EF29E960E0101866F92
:1049A00000011AEC04F019BEF28E81B001D0492A40
:1049B00001014151495C02E34083496A40A303D0AD
:1049C000000E016E22D0602BBCD7616B81B001D08C
:1049D000492A4151495C02E34083496A40A303D01C
:1049E000000E016E12D0196AF2BE198EF29E050EEB
:1049F000866F00011AEC04F019BEF28E0101612BE2
:104A00006151C808D8A001D0E1D7000187EF2EF08E
:104A100001015F6B5F5105084DE36C6B6D6B6E6B55
:104A2000000195EC04F0196AF2BE198EF29E960E02
:104A30000101866F00011AEC04F019BEF28E01012B
:104A40006C696D696E69000195EC04F0196AF2BE3B
:104A5000198EF29E640E0101866F00011AEC04F0BB
:104A600019BEF28EEA6ADC0EE96E000EC8EC00F0A8
:104A70000A000900F550EE6E0009FBE1196AF2BE6A
:104A8000198EF29E960E0101866F00011AEC04F059
:104A900019BEF28E81B001D0492A01014151495C11
:104AA00002E34083496A40A303D0000E016E09D09F
:104AB0005F2BB0D76C6B6D6B6E6B000195EC04F0E7
:104AC00001010001A7EF2EF0F86AF184D08E078E65
:104AD0002F6A7086110E756E040E766EA60E726EBB
:104AE000900E716EB886110EAF6E040EB06EA60EEB
:104AF000AC6E900EAB6E376A366A356A346A336ACA
:104B0000326A316A306A396A386A3B6A3A6A3D6A9F
:104B10003C6A3F6A3E6A466A476A486A496A4B6A23
:104B20004A6A4D6A4C6A4E68506A4F6A546A536AC0
:104B3000526A516A280E556E130E566E5E6A606B8D
:104B40005F6A646B636B626B616B686B676B666BF0
:104B5000656B6C6B6B6B6A6B696B706B6F6B6E6BA1
:104B60006D6B090E726F600E716F060E746F400EE2
:104B7000736F030E766F200E756F090E786F600EDF
:104B8000776F060E7A6F400E796F030E7C6F200EE2
:104B90007B6F7E6B7D6B806B7F6B81918193819549
:104BA0008197856B846B836B826B050E866F886B38
:104BB000876B966BCC0E956F010EB06F330EAF6F97
:104BC000B26BB16B8189819B818D819FD26BD16BDF
:104BD000D06BCF6BD36BD76BD66BD56BD46BDB6BDA
:104BE000DA6BD96BD86B01014093426B446943691E
:104BF000466B456B486B476B4C6B4B6B4A6B496B19
:104C00000001CE6BCD6BCC6BCB6B01014091140ED0
:104C10004D6F010E416F040E4E6F0F01386B396BF3
:104C20003A6B3B6B3C6B776A786A796A406A416A97
:104C3000F00E5D1757175417CD6ACC6A000E06099F
:104C4000BA6EFA0EBB6E8B940C0EBD6EB76AB66A66
:104C5000010EB96EFC0E4917000E49138B920C0E13
:104C6000666E656A646A010E636EE70E4917000E90
:104C70004913516F000E526F4D6B4E6B4A6F000E11
:104C80004B6F416B776A040E786E796E426BC290FF
:104C9000C150F00BC16E030E386F000E3C6F396FC0
:104CA0003A6F3B6FC050C00B0109C06EC08EC2800E
:104CB000EF0E926E030E936E800E946E956E96902C
:104CC00096929694969601016C6B6D6B6E6B0001DB
:104CD00095EC04F002EF05F0F19CF288C00EF212A0
:104CE000BE68BD50CF0B3009BD6E67686650CF0BF4
:104CF0003009666E0AEF05F023EF05F0F2CF5FF1A1
:104D0000F29E040EA96EA69CA69EA680A850010144
:104D10005FBFF28EFF080DE0F2CF5FF1F29E040E4E
:104D2000A96EA69CA69EA680A8505FBFF28E416F7A
:104D300002D0010E416FF2CF5FF1F29E030EA96E19
:104D4000A69CA69EA680A8505FBFF28E606FF2CF91
:104D500061F1F29E020EA96EA69CA69EA680A850A6
:104D600061BFF28E626FF2CF63F1F29E010EA96E07
:104D7000A69CA69EA680A85063BFF28E646FF2CF59
:104D800065F1F29EA96AA69CA69EA680A85065BF62
:104D9000F28E666F60C154F062C153F064C152F08C
:104DA00066C151F0513C0AD0523C08D0533C06D069
:104DB000543C04D0546A536A526A516AF2CF5FF18C
:104DC000F29E0B0EA96EA69CA69EA680A8505FBF61
:104DD000F28EFF080EE0F2CF5FF1F29E0B0EA96E8D
:104DE000A69CA69EA680A8505FBFF28E0001866F8B
:104DF00003D0020E0001866FF2CF5FF1F29E250E06
:104E0000A96EA69CA69EA680A85001015FBFF28E47
:104E1000606FF2CF61F1F29E260EA96EA69CA69E4F
:104E2000A680A85061BFF28E626F60C14BF062C174
:104E30004AF04A3C06D04B3C04D0010E4B6E9A0E11
:104E40004A6EF2CF5FF1F29E270EA96EA69CA69E37
:104E5000A680A8505FBFF28E606FF2CF61F1F29E24
:104E6000280EA96EA69CA69EA680A85061BFF28EB1
:104E7000626F60C14DF062C14CF04C3C05D04D3CBE
:104E800003D04D6ACD0E4C6EF2CF5FF1F29E290E2B
:104E9000A96EA69CA69EA680A8505FBFF28EFF08B2
:104EA0000DE0F2CF5FF1F29E290EA96EA69CA69EA0
:104EB000A680A8505FBFF28E556E02D0140E556EBC
:104EC000D80EF66E060EF76E196AF2BE198EF29EB5
:104ED00000016FEC04F019BEF28E030E0101676F42
:104EE000E80E666F696B55C068F100017EEC05F055
:104EF00001C05FF1196AF2BE198EF29E0A0E01011D
:104F0000856F000142EC04F019BEF28E5FC163F1BF
:104F10001B0E0101646F0001B7EC05F0ED0EF66E9B
:104F2000060EF76E060E0101696F000107EC06F030
:104F300055C063F11B0E0101646F0001B7EC05F071
:104F4000F50EF66E060EF76E030E0101696F000195
:104F500007EC06F0080E01015F6F196AF2BE198EA8
:104F6000F29EFA0E866F00011AEC04F019BEF28E62
:104F700001015F2FF2D78A84FA0EF66E060EF76EE5
:104F8000196AF2BE198EF29E00016FEC04F019BE90
:104F9000F28E196AF2BE198EF29E0A0E0101856F19
:104FA000000142EC04F019BEF28E450EE96E54C0C9
:104FB00066F153C065F152C064F151C063F16BEC0E
:104FC00006F0120EF66E070EF76E060E0101696FFF
:104FD000000107EC06F041C163F11B0E0101646F93
:104FE0000001B7EC05F0196AF2BE198EF29E540E5C
:104FF0000101856F000142EC04F019BEF28E196ABE
:10500000F2BE198EF29E4C0E0101856F000142EC3A
:1050100004F019BEF28E01016C6B6D6B6E6B0001BA
:1050200095EC04F01E0EF66E070EF76ED8EF06F044
:1050300064EF07F0F2CF5FF1F29E0C0EA96EA69C12
:10504000A69EA680A85001015FBFF28EFF080DE06A
:10505000F2CF5FF1F29E0C0EA96EA69CA69EA680D2
:10506000A8505FBFF28E4D6F06D0140E656F000121
:10507000C1EC08F00101196AF2BE198EF29E640EAD
:10508000866F00011AEC04F019BEF28E4DC15FF17B
:10509000EAEF08F08A840101466B456B40A3B9D062
:1050A0006C6B6D6B6E6B000195EC04F0F298010E69
:1050B0005126D8B0522AD8B4532AD8B4542A51C051
:1050C0005FF1F250006EF29EA96A5FC1A8FFA69C34
:1050D000A69EA6840F01550EA76EAA0EA76EA682E5
:1050E000A6B2FED7A6940050F21252C05FF1F2CFE2
:1050F00000F0F29E010EA96E52C0A8FFA69CA69ECB
:10510000A684550EA76EAA0EA76EA682A6B2FED7DB
:10511000A6940050F21253C05FF1F2CF00F0F29E5D
:10512000020EA96E53C0A8FFA69CA69EA684550E8B
:10513000A76EAA0EA76EA682A6B2FED7A6940050AE
:10514000F21254C05FF1F2CF00F0F29E030EA96E8E
:1051500054C0A8FFA69CA69EA684550EA76EAA0EB4
:10516000A76EA682A6B2FED7A6940050F2122A0E0F
:10517000F66E070EF76E196AF2BE198EF29E0001E6
:105180006FEC04F019BEF28E196AF2BE198EF29E0F
:105190000A0E0101856F000142EC04F019BEF28E87
:1051A000450EE96E54C066F153C065F152C064F11A
:1051B00051C063F16BEC06F0420EF66E070EF76E0F
:1051C000060E0101696F000107EC06F041C163F1B1
:1051D0001B0E0101646F0001B7EC05F0196AF2BE05
:1051E000198EF29E540E0101856F000142EC04F00D
:1051F00019BEF28E196AF2BE198EF29E4C0E010192
:10520000856F000142EC04F019BEF28E83EF0DF0C1
:10521000010140A117EF2DF0409333C0D7F032C009
:10522000D6F031C0D5F030C0D4F0F28A336A326A99
:10523000316A306A4F6B506B516B526B546B536BCE
:10524000566B556B5A6B596B586B576B5E6B5D6B3E
:105250005C6B5B6B6C6B6D6B6E6B000195EC04F0C3
:10526000488C488E478046C06CF147C06DF148C0FD
:105270006EF195EC04F033C085F032C084F031C09B
:1052800083F030C082F001015751305C5F6F58519C
:105290003158606F59513258616F5A513358626FAB
:1052A00062530AE1615308E16051060821E2FF0AF6
:1052B00003E15F51D0081CE281A212D00001D4ECBE
:1052C00008F00101676B640E666F00014DEC07F09A
:1052D0000101676B0A0E666F0001DCEC08F001014A
:1052E00033C05AF132C059F131C058F130C057F1D2
:1052F0000001D451305C01015F6F0001D55131587C
:105300000101606F0001D65132580101616F000147
:10531000D75133580101626F625307E1615305E1D0
:10532000605303E15F51555C10E24C0E656F000164
:10533000C3EC0CF001C04EF033C0D7F032C0D6F051
:1053400031C0D5F030C0D4F001014E5203E100016C
:10535000818501014E3C01D04DD04EC065F1000168
:1053600054EC10F00101526B52C151F14E500B0838
:1053700006E04E500C0803E04E500D0811E14EC0FF
:105380005FF1000180EC10F002C060F1D8900101E3
:105390000230036E01305327035054234EC04FF1A7
:1053A0004E50150806E04E50160803E04E50170800
:1053B00011E14EC05FF1000180EC10F002C060F11D
:1053C000D89001010230036E013055270350562357
:1053D0004EC050F133C05AF132C059F131C058F1CA
:1053E00030C057F133C05EF132C05DF131C05CF1C5
:1053F00030C05BF14F510B0806E04F510C0803E041
:105400004F510D080CE14FC15FF154C161F153C11F
:1054100060F10001F6EC10F001C051F101015051B2
:10542000150806E05051160803E0505117080CE12A
:1054300050C15FF156C161F155C160F10001F6EC58
:1054400010F001C052F10101515306E04EC04FF17E
:105450004E3C02D0546B536B525306E04EC050F199
:105460004E3C02D0566B556B4E0EF66E070EF76E25
:10547000070E696F000107EC06F0100EE96E50C0D0
:1054800067F14FC066F17AEC09F0196AF2BE198E25
:10549000F29E200E0101856F000142EC04F019BE5E
:1054A000F28E8251305C01015F6F000183513158EF
:1054B0000101606F0001845132580101616F0001E8
:1054C000855133580101626F5A0EF66E070EF76E62
:1054D000070E696F000107EC06F0410EE96E62C12C
:1054E00066F161C165F160C164F15FC163F16BECAC
:1054F00006F081B542D08251305C01015F6F00013E
:10550000835131580101606F00018451325801010B
:10551000616F0001855133580101626F646B86C071
:1055200063F1EA0E666F600E656F0001B3EF11F074
:1055300003500101625D18E3D8B402D000011DD010
:105540000250615D11E3D8B402D0000116D00150C1
:10555000605D0AE3D8B402D000010FD05F51005C57
:10556000D8B002D0000109D00001E3EC09F00152EB
:1055700004E115EC0AF0015201E0818581A583D692
:105580008195F288D4EC08F0196AF2BE198EF29E69
:10559000640E0101866F00011AEC04F019BEF28E50
:1055A0000101676B040E666F0001DCEC08F0660E0B
:1055B000F66E070EF76E196AF2BE198EF29E6FEC48
:1055C00004F019BEF28E489C489E479046C06CF18C
:1055D00047C06DF148C06EF195EC04F0488646C0B6
:1055E0006CF147C06DF148C06EF195EC04F048884D
:1055F00046C06CF147C06DF148C06EF195EC04F007
:10560000488A46C06CF147C06DF148C06EF195EC18
:1056100004F0488046C06CF147C06DF148C06EF19F
:1056200095EC04F0488246C06CF147C06DF148C06B
:105630006EF195EC04F0488446C06CF147C06DF102
:1056400048C06EF195EC04F04690469246C06CF16D
:1056500047C06DF148C06EF195EC04F04694469653
:1056600046C06CF147C06DF148C06EF195EC04F096
:10567000468A469846C06CF147C06DF148C06EF14D
:1056800095EC04F0040E01015F6F196AF2BE198EE9
:10569000F29EFA0E866F00011AEC04F019BEF28E2B
:1056A00001015F2FF2D74698469A46C06CF147C079
:1056B0006DF148C06EF1000195EC04F0040E01019B
:1056C0005F6F196AF2BE198EF29EFA0E866F0001A4
:1056D0001AEC04F019BEF28E01015F2FF2D7D892B6
:1056E00037C079F136C078F135C077F134C076F142
:1056F0007D6B7C6B030E7B6FE80E7A6F000121ECF3
:1057000006F001C060F100C05FF101010150445D8D
:105710001BE303E143515F5D17E2D89237C079F193
:1057200036C078F135C077F134C076F17D6B7C6B93
:10573000030E7B6FE80E7A6F000121EC06F001C0CA
:1057400044F100C043F10101376A366A356A346AB0
:10575000466B456B489646C06CF147C06DF148C03A
:105760006EF1000195EC04F0489846C06CF147C01A
:105770006DF148C06EF195EC04F0489A46C06CF1AA
:1057800047C06DF148C06EF195EC04F0489046C0FA
:105790006CF147C06DF148C06EF195EC04F0489291
:1057A00046C06CF147C06DF148C06EF195EC04F055
:1057B000489A46C06CF147C06DF148C06EF195EC57
:1057C00004F0E9EC06F001520AE14682469046C038
:1057D0006CF147C06DF148C06EF195EC04F01BEC24
:1057E00007F001520AE14686469446C06CF147C074
:1057F0006DF148C06EF195EC04F0D4EC08F0196A34
:10580000F2BE198EF29E640E0101866F00011AEC41
:1058100004F019BEF28E0101676B050E666F000180
:10582000DCEC08F0489646C06CF147C06DF148C00A
:105830006EF195EC04F0489846C06CF147C06DF1EC
:1058400048C06EF195EC04F0489A46C06CF147C030
:105850006DF148C06EF195EC04F0489046C06CF1D3
:1058600047C06DF148C06EF195EC04F0489246C017
:105870006CF147C06DF148C06EF195EC04F0489AA8
:1058800046C06CF147C06DF148C06EF195EC04F074
:10589000E9EC06F001520AE04690469246C06CF1EF
:1058A00047C06DF148C06EF195EC04F01BEC07F0B9
:1058B00001520AE04694469646C06CF147C06DF12D
:1058C00048C06EF195EC04F0E9EC06F0015205E0F9
:1058D0001BEC07F0015201E003D0D4EF11F0A2D786
:1058E0000101486B476B466B456B489646C06CF1AF
:1058F00047C06DF148C06EF1000195EC04F0489886
:1059000046C06CF147C06DF148C06EF195EC04F0F3
:10591000489A46C06CF147C06DF148C06EF195ECF5
:1059200004F0489046C06CF147C06DF148C06EF17C
:1059300095EC04F0489246C06CF147C06DF148C048
:105940006EF195EC04F0489A46C06CF147C06DF1D9
:1059500048C06EF195EC04F04690469246C06CF15A
:1059600047C06DF148C06EF195EC04F04694469640
:1059700046C06CF147C06DF148C06EF195EC04F083
:105980004698469A46C06CF147C06DF148C06EF12A
:1059900095EC04F0D4EC08F0196AF2BE198EF29E70
:1059A000640E0101866F00011AEC04F019BEF28E3C
:1059B0000101676B0A0E666F0001DCEC08F0010163
:1059C000409100018195F2CF5FF1F29E0C0EA96E1D
:1059D000A69CA69EA680A85001015FBFF28EFF087C
:1059E00013E0F2CF5FF1F29E0C0EA96EA69CA69E6C
:1059F000A680A8505FBFF28E606F60C165F10001A4
:105A0000C1EC08F006D00101140E656F0001C1EC75
:105A100008F0196AF2BE198EF29E640E0101866FBB
:105A200000011AEC04F019BEF28EA5D1010140B1BB
:105A3000A2D1F2CF5FF1F29E040EA96EA69CA69EA3
:105A4000A680A8505FBFF28EFF080DE0F2CF5FF195
:105A5000F29E040EA96EA69CA69EA680A8505FBFCB
:105A6000F28E416F0FD0F2CF5FF1F29E040EA96E5D
:105A7000A69CA69EA680A8505FBFF28EFF0802E1FA
:105A8000010E416F720EF66E070EF76E196AF2BEC6
:105A9000198EF29E00016FEC04F019BEF28E196AA5
:105AA000F2BE198EF29E0A0E0101856F000142ECD2
:105AB00004F019BEF28E450EE96E54C066F153C073
:105AC00065F152C064F151C063F16BEC06F08A0ECF
:105AD000F66E070EF76E060E0101696F000107EC06
